:020000041000EA
:1000000000B5324B212058609868022188439860DF
:10001000D860186158612E4B002199600221596106
:100020000121F02299502B49196001219960352056
:1000300000F044F80222904214D00621196600F024
:1000400034F8196E01211966002018661A6600F04E
:100050002CF8196E196E196E052000F02FF8012189
:100060000842F9D1002199601B49196000215960AB
:100070001A491B48016001219960EB211966A021F2
:10008000196600F012F800219960164914480160C1
:100090000121996001BC002800D000471248134993
:1000A000086003C880F30888084703B5996A0420EC
:1000B0000142FBD001200142F8D103BD02B5186610
:1000C0001866FFF7F2FF186E186E02BD00000240BE
:1000D000000000180000070000035F00212200005C
:1000E000F4000018222000A00001001008ED00E03C
:1000F00000000000000000000000000074B24E7A12
:1001000000200420F7010010C3010010C5010010F9
:10011000C1010010C1010010C1010010C101001097
:10012000C1010010C1010010C1010010C701001081
:10013000C1010010C1010010C9010010CB01001065
:10014000CD010010CD010010CD010010CD01001037
:10015000CD010010CD010010CD010010CD01001027
:10016000CD010010CD010010CD010010CD01001017
:10017000CD010010CD010010CD010010CD01001007
:10018000CD010010CD010010CD010010CD010010F7
:10019000CD010010CD010010CD010010CD010010E7
:1001A000CD010010CD010010CD010010CD010010D7
:1001B000CD010010CD010010CD010010CD010010C7
:1001C00000BE00BE00BE00BE00BE00BEEFF3058054
:1001D000103800BEF2EB88716C4A0010904A001093
:1001E0003402001090A31AE700201F49086006C8D7
:1001F00081F3088810471D48006800282FD10DA4FE
:100200000ECC002902D000F012F8F9E71849194A7B
:10021000002000E001C19142FCD1174988471749ED
:1002200088471749884700BEFDE701C901C29A42C5
:10023000FBD37047904A0010C0000020F00E002051
:10024000C05800100000042000000420C058001016
:10025000001004200010042000000000704709482E
:1002600001F0C8FF0047000008ED00E0000000D0EA
:10027000F00E00206C1B00206D2000107903001090
:10028000612100105756000006005250ABB3605376
:10029000B048001006005250861C0302C0480010EF
:1002A000060052505422A29DCC4800100500525026
:1002B000DE65F468C0580010F8B5C0460448054B28
:1002C00010B5834203D0044B002B00D0984710BDDB
:1002D000F00E0020F00E0020000000000648074944
:1002E000091A8B10C90FC91810B5491003D0044B57
:1002F000002B00D0984710BDF00E0020F00E00201B
:100300000000000010B5074C2378002B09D1FFF73F
:10031000D5FF054B002B02D0044800E000BF0123AD
:10032000237010BD1812002000000000404600108D
:10033000054B10B5002B03D00449054800E000BF71
:10034000FFF7CCFF10BDC046000000001C120020CB
:100350004046001010B502F0B5FB002803D002F0B3
:10036000B9FB012010BD002003F006FC0028F8D0E6
:1003700000F00CF9F5E7C04600B58BB003F0CCFDFA
:1003800000F06EF800F000FF04AB0293002301932D
:10039000054B064A0093002300F0BEFF0120002118
:1003A000404202F02FFCF9E755030010102700002F
:1003B000002070477047C0467047C0467047C0462F
:1003C0007047C0467047C0467047C04600487047F7
:1003D0007847001000487047884600100048704772
:1003E0006446001010B5002825D003282ED8184BDD
:1003F0008000C458200004F0A1F8C0B2011C1F28DE
:1004000014D8C9B200281FD00023124AE05C01337F
:100410001080D8B202328142F8D8C0230131C9B26B
:1004200049009B000B430C48038010BD1F21C9B23B
:100430000028E9D108E0064B02221968054802F0BD
:1004400003F8C1239B00EEE7044BECE70020ECE748
:10045000F80D0020961300209413002002030000E2
:10046000F0B5C646164CD026631D9846012700B548
:10047000360625780134280000F030F93B00AB4007
:10048000002201212800B36200F016F94445F0D1A2
:100490000C4CD026231D98460127360625780134BA
:1004A000280000F01BF93B00AB400022012128008E
:1004B000B36200F001F94445F0D180BCB846F0BD0C
:1004C0002C480010344800100122F0B517002D4BC5
:1004D000D0251B5CC6469F4090462D0600B5040003
:1004E0006F620120AF610E0001F00CF942466B68AB
:1004F0009B081A421ED06B68DB081A420AD06B6850
:100500001B091A4230D06B685B091A421DD00020CB
:10051000AF620CE01C4964010B191B7A002B1CD044
:10052000327813433370D02301201B069F6280BCB6
:10053000B846F0BD14496401635C002BF0D1082279
:100540003000611801F080FFEDE70F4964010B19DD
:100550001B7E002BE4D11834F1E708340822300068
:10056000611801F071FFDEE7074964010B191B7C7C
:10057000002BD5D1103408223000611801F064FF3F
:10058000D1E7C0462C4800108C470010F0B583B06E
:100590006D46D0248026240608220021360128003A
:1005A00001F04CFF66620120A66101F0ABF86368C0
:1005B00001275B0732D56368DB081F421BD06368E5
:1005C0001B091F425CD063685B091F4253D029009E
:1005D0000120A662FFF778FF00282ED02A78AC7899
:1005E000144315D001212F4B002019706B460233A4
:1005F00003F0DEFA10E02A002B4B03CB03C2D0231A
:1006000080221B0612019A620022AC781443E9D1C1
:10061000244D2B78002B38D103B0F0BD01230121EC
:100620002A7800201A431F4BD2B22A70A662197092
:100630006B46023303F0BCFAEEE729000220FFF715
:1006400043FF0028CAD129000320FFF73DFF0028FF
:10065000C4D180231B0263620120A36101F052F820
:1006600063689B081F4218D0D02380221B06120209
:100670009A622A78B3E72A000C4B03CB03C2BEE789
:100680002A000B4B03CB03C2B9E700230022012150
:10069000002003F08DFA2C70BEE72A00054B03CB37
:1006A00003C2E1E7681B002094470010A447001034
:1006B0009C4700100C480010074B80009C4660448B
:1006C0000368C90092000A435A400C231A40802351
:1006D0005B0103431A60704704C001400123D0222C
:1006E0008340120693629361094A40219446830035
:1006F00063441A68C0004A40803111408022520190
:1007000013431960034B9C460523604443607047C4
:1007100004C0014000400140024B18688007C00F30
:100720007047C04600C0064070B5EFF3108C72B63B
:100730000D4D2B68002BFCD0BFF35F8F0724CB0837
:10074000C618C05C01230C40A3401C0004400342B7
:1007500007D118433070BFF35F8F2C608CF3108883
:1007600070BD100001F000FD2C0100D0F8B5474627
:10077000CE46884680B5EFF3108C72B6214D2C68BA
:10078000002CFCD0BFF35F8F9A422CD8D4080727E7
:10079000055D061901241740BC402C421FD00721DB
:1007A0000127894609E0D408055D06194C46390041
:1007B0001440A1400C00294211D001329342F2D2E0
:1007C00001204042BFF35F8F00220E4B1A608CF372
:1007D000108800280FDBC0BCB946B046F8BD2543E1
:1007E00010003570EEE7BFF35F8F00232B608CF3B2
:1007F0001088012040424346002BECD0089801F0BD
:10080000B3FCC0462C0100D00021044B044ABFF3C6
:100810005F8F02C39342FAD17047C046000100D0F7
:10082000800100D0044A1078431CDBB2172B00D99A
:10083000102313707047C046080E002010B5064BF9
:10084000064C82B00100009318221F232000FFF7FE
:100850008DFF02B010BDC04638480010DC160020E5
:1008600001238340002904D0034A1360034A136024
:100870007047034A1360FBE780E200E000E100E01C
:1008800080E100E0024B10309B688000C058704748
:1008900000ED00E070B50D00EFF3108672B60F4A60
:1008A0001368002BFCD0BFF35F8F0D4B10309B689B
:1008B00084001B590B4A934203D09D4201D001F0A2
:1008C0006BFC074B9B681D51BFF35F8FBFF35F8FBE
:1008D0000022024B1A6086F3108870BD240100D0FC
:1008E00000ED00E0CD010010F0B557464E46DE4663
:1008F0004546E0B585B0060000911700EFF3108B78
:1009000072B66A4A1368002BFCD0BFF35F8F0025D4
:10091000674B5D579A46002D00DA8BE06B00654C03
:1009200001935B199B009846A146C1444B46524631
:100930009B7910361370604BB6009B6899590B1B5E
:100940002F2B33D95D4B994200D0ACE0019B42463E
:100950009C465B4B6544AD0063535A4B0232A21870
:10096000043B9B1A1B05584A5B0D651913436B80AA
:10097000564B0121AB80FF23AB71009BEF71AB6045
:100980004B460B4319004C4B9B689951BFF35F8F4B
:10099000BFF35F8F0022454B1A608BF3108805B0C0
:1009A000F0BCBB46B246A946A046F0BD01200A00F5
:1009B0008243D3798C46BB4231D845461300444923
:1009C0001B1B5B415943090D3D4B63533D4B0235A6
:1009D0006519043B5B1B1B053B4D5B0D2B43AA4676
:1009E0004D466B800425AC465546E044131F4444F5
:1009F0001B1B1B055B0D1D434B46997100999D8088
:100A000099604946DF71334B01431360BBE75800DF
:100A1000C01880002018C179B94211D902000623FC
:100A2000D356002BF3DA0293131D9A462A4B6146E4
:100A3000039319E001F0B0FB002553465D576DE7C5
:100A4000908802934005131D9A46031561469C4603
:100A50004046D444634604302018181AE0230005A9
:100A6000400D1B021843039004235B429C46E14463
:100A700050464B461B1A1B055B0D9C46124B95714D
:100A800098466346404603439380019B5A1992005F
:100A9000039BA418A380029B0E4AA371009B2260B3
:100AA000E771A3606FE701F077FB4FE7240100D007
:100AB000691B00200C0E002000ED00E0CD010010AD
:100AC00000A1FFFF3C0E002000E0FFFF01BDFFFF83
:100AD000AAAA00000148804701BD0000F0B5DE462B
:100AE00057464E464546E0B50C0083B0EFF31088FC
:100AF00072B65D4A1368002BFCD0BFF35F8F5B4B6F
:100B00005B499A68030010339F00D5598D4239D054
:100B1000A5424AD0574EAA1B2F2A33D8012292460B
:100B2000824091464846544A126810400190484617
:100B3000524A1060BFF35F8FEFF305829346002A9D
:100B400035D0934201D001F027FB2A0053469A4347
:100B50009068844208D175E04B005B189B00F31845
:100B60009868A04234D01A00062151560029F3DAC1
:100B7000844253D0019B002B26D04A46404B1A603A
:100B80003D4B1A60394B9B68DD51BFF35F8FBFF35C
:100B90005F8F0022344B1A6088F3108803B0F0BCDA
:100BA000BB46B246A946A046F0BD0D00EAE72A00C2
:100BB00053469A4390688442D6D1062010561300BB
:100BC000002809DA0D0031E04A462C4B1A60D9E7BB
:100BD00006201856002822DB4200111889007418DC
:100BE0008A46A1689960E179D971062161569971A7
:100BF000002925DBA488F11A640524155444091939
:100C0000E0240905490D24022143998013181D4A47
:100C10009B001178F31899711070ABE713005946D7
:100C2000002914D1FF3191711749918015490A7833
:100C30009A71164A9B1B5B415A43120D0A7099E741
:100C40001349E2E70620105613000028C4DA114ABF
:100C50001149D21A083A5002400D014399800F49B8
:100C600052080A43DA8085E7240100D000ED00E055
:100C7000CD0100100C0E002000E100E080E100E05A
:100C800080E200E0691B002001BDFFFFAAAA00006E
:100C900001BD0000460E002000F0FFFF00F8FFFF3E
:100CA00070B5EFF3058101240443EFF3108C72B6A5
:100CB000214A1368002BFCD0BFF35F8F1F4B050048
:100CC0001F4AED1A6D416A43120D1E4D8900AE6830
:100CD00052B27658A6421CD00621595691421CD0D9
:100CE00012215956914222D01E215956914220D0AC
:100CF0002A2159560324914210D0134B19781A70A7
:100D00008171BFF35F8F00220B4B1A608CF3108848
:100D100070BDAB680D4C5C50EFE700246100091911
:100D200089005B18FF21997109499980E5E7012441
:100D3000F4E70224F2E7C046240100D00C0E0020A4
:100D4000AAAA000000ED00E0691B0020CD01001000
:100D500001BDFFFF054B064A1360064A136053604E
:100D60009360D3601361536193617047808080808A
:100D700000E400E004E400E0024B9C46614489008A
:100D8000016070474000003410B50400FFF74AFDD1
:100D900001002000FFF7F0FFFF232371BFF35F8FF7
:100DA00010BDC04610B50400FFF73CFD0100200057
:100DB000FFF7E2FFFF23A380BFF35F8F10BDC046A4
:100DC00010B504000120FFF739FD034BC3189B0049
:100DD0002360BFF35F8F10BD4000003483680B4871
:100DE00010B58446614462441201090159189B18E8
:100DF0005C684A680120944201D802D00020C0B249
:100E000010BD1A680B689A42F9D8F7E7FFFFFF0F89
:100E100010B508000B690C009847002802D0206824
:100E2000616810BDE06000210020FAE70A4B1968F4
:100E3000EFF3108072B60A68002AFCD0BFF35F8F10
:100E40001B68BFF35F8F00221A6080F3108840BFD9
:100E5000002000217047C046501B0020F8B55746BF
:100E600045464E46DE46E0B598460CAB1C780DABC9
:100E70001B78070091469A460568002C5ED1AC7B32
:100E8000002C3BD0660029683619033E89194B783F
:100E9000AB73002B00D1EB7300238B704B700B7086
:100EA0002D4BE218BB6812019B184A461A60424655
:100EB0005A600A9A9A600B9ADA6000238B704B7022
:100EC0000B706B7B9B46002B2BD022005946A868E9
:100ED0006B6898472A68002816D05B4658465B0026
:100EE0005B449619033BB070D118D35C002B00D043
:100EF00073705B460C706B735C4513D0F0BCBB46E3
:100F0000B246A946A046F8BD5B465B005B44033B86
:100F1000D3189C709119925D002A00D05A705B46DC
:100F20000B706C734A464346387D00F06FFC051E1B
:100F30000AD10E9B002BE1D01D70DFE76600296807
:100F40003619033E8919ABE75346002BF1D1210036
:100F5000386800F07FFEECE7FFFFFF0FF0B5DE46DC
:100F600057464E4645460023E0B58BB00893684B84
:100F70008200D45800239B46099000F0B9FB020080
:100F80000B006068EFF3108A72B6564601680029BC
:100F9000FCD0B246BFF35F8F21684F7B8C46002F99
:100FA0002ED0A5685B49A9467918090189444946AC
:100FB0000868496805000E00AD1A9E41002E5FDDED
:100FC00002000B00099800F021FC00230022994642
:100FD000002306920793002398466368BFF35F8F50
:100FE0005A461A608AF310884346002B12D1002813
:100FF000C3D10BB0F0BCBB46B246A946A046F0BD7B
:101000000023002299460023069207930023002024
:101010009846E2E7089B494618023843C047626891
:1010200005000E00EFF3108A72B61368002BFCD097
:10103000BFF35F8F002E41DB2B00334302D02369C7
:10104000002B56D12368D97B002905D01A684800A7
:1010500041185218033A57709A7B002A00D19F73A7
:10106000DF73E268013FD35D0133D3555B462361F3
:101070006368BFF35F8F5A461A608AF310887CE773
:10108000002E02D1002D00D09AE70021604600F02A
:101090005FFD4B461A685B68069207934B469B6858
:1010A00098464B46DB689946E368DB19013B1B78A1
:1010B00008931B020343236100208EE72369002B62
:1010C000C0D0069A079B8021521BB34109068B4270
:1010D00002D30122104B52420021049101310391AD
:1010E000494601914146200002970091FFF7B6FE64
:1010F000BCE700F0FDFA2A00330012184B418021B2
:1011000009068B42E8D30122034B5242E4E7C04672
:10111000341B0020FFFFFF0FFFFFFF7F10B5144CB3
:101120006368002B04D00A211248FFF725FE10BD8A
:101130002300114A1021206800F020FC032000F059
:10114000CBFA032000F0CAFB03200C4900F018FB87
:10115000FFF768FB0A4B9C4603232375D0231B062D
:101160001B6860446375074B80006060DC60DAE7F1
:10117000540E0020501B0020DD0D00105D0F0010EC
:1011800040000034341B002000487047540E0020FB
:10119000F0B557464E464546DE46E0B585B001936C
:1011A00010AB1B780600039300239A4698460092E2
:1011B0007268EFF3108B72B61368002BFCD0BFF38C
:1011C0005F8F3568AC7B002C00D16FE067002B6827
:1011D0003F19033FDB195A78AA73002A00D1EA733A
:1011E0004B4AA118B2680901521800980199106081
:1011F00051600E9991600F99D16042469A705A7071
:101200001A706B7B9946002B00D170E02200494692
:10121000A8686B6898472A6800285BD04B46484608
:101220005B004B44D719033BB870D118D35C002B3B
:1012300000D07B704B460C706B734C4558D0F368F4
:101240001B19013B18787368BFF35F8F42461A6021
:101250008BF310885346002B08D10002204305B0C1
:10126000F0BCBB46B246A946A046F0BD039B002B8E
:101270004BD00E9B00200F999847030004000D00EF
:101280000B4342D000291ADA009A019B121BAB4192
:101290000092019380221206934204D301231D4C35
:1012A0005B4200930194039B9A4681E77368BFF306
:1012B0005F8F1C608BF3108801204042CFE700F065
:1012C00017FA802224184D41120600940195954288
:1012D000E9D3E3E74B465B004B44033BD3189C70D8
:1012E000D119D25D002A00D05A704B460B706C7336
:1012F000307D009A019B00F089FA824600289ED03A
:101300002100306800F0A6FC99E70020A7E7C0465E
:10131000FFFFFF0FFFFFFF7FF0B557464E46DE464B
:1013200045461100E0B585B006009C46109F194364
:1013300000D1EDE06146DB170193009353401C00A0
:10134000019B4B401D0000980199241A8D41634672
:101350000E997B600F9BBE607B6139613A6000F043
:10136000C7F98023001969411B0600900191994239
:1013700004D301236B4C5B420093019400239846F5
:10138000694B1097039300239946109B37004646FC
:1013900098467A68EFF3108B72B61368002BFCD076
:1013A000BFF35F8F3D68AC7B002C00D179E0630018
:1013B0001B19033B1A00944602932B6863445A7826
:1013C000AA73002A00D1EA73584AA118BA68090121
:1013D000521800980199106051600399916041463C
:1013E000D1604A469A705A701A706B7B9A46002BED
:1013F00000D17FE022005146A8686B6898472A68B0
:10140000002800D168E053465B005344033B9C46F0
:10141000D11853460298101883706346D35C002B92
:1014200000D0437053460C706B733500544562D046
:10143000FB687A681B19013B1B78BFF35F8F494635
:1014400011608BF31088002D0CD147461B022343FB
:1014500001352800FB6005B0F0BCBB46B246A9468A
:10146000A046F0BD434640461B699847061E24D05F
:1014700042461468556822002A434FD0002D1FDAD7
:10148000009A019B121BAB4100920193802212062D
:10149000934200D27DE70123224C5B4200930194EA
:1014A00077E73E0047467368BFF35F8F1C608BF39E
:1014B0001088012300255B42CBE747460023C8E79D
:1014C00000F016F9802224184D411206009401956F
:1014D000954200D25DE7DEE753465B005344033B91
:1014E0000298D3189C701118125C002A00D05A7010
:1014F00053460B706C73387D009A019B00F086F99F
:10150000051E00D194E72100386800F0A3FB8FE7A7
:1015100000230124002501229C4618E747460500C8
:10152000002396E7FFFFFF7F110E0010FFFFFF0F64
:10153000F0B5EFF30583CE46474680B505000C00B5
:1015400085B0002B0DD0324A0020536A9C4203D84C
:10155000926A0130AA4232D305B0C0BCB946B04647
:10156000F0BD2C4E029301932B4B020000933000F0
:101570000B00FFF70DFE031EE5DD20BF7168EFF3E2
:10158000108772B60A68002AFCD0BFF35F8FDAB208
:1015900094463068427B624516D0FF2201681A40AB
:1015A0008946510088464946904441440339897828
:1015B00000290BD13269934210D131610EE0E31A58
:1015C0005A1E9341D8B2C7E7FF221A40F1681B0A9E
:1015D0008A18013A1278DBB29A4214D07368BFF3CA
:1015E0005F8F00221A6087F31088094B00205A6A27
:1015F0009442B1D89B6A0130AB42ADD2A41A631EAB
:101600009C41E0B2A8E7614600F024FBE6E7C04653
:1016100000400540540E00202D0E0010F0B5EFF3F1
:101620000582D6464F4646461000C0B51038EFF347
:10163000108872B6214C2368002BFCD0BFF35F8F5B
:101640000123190081401E4D1F006963AA461D4DEC
:1016500029601D4D2E78AC463500C5402F402B42E9
:1016600015D053465F6A194B8500EB589F4218D33B
:101670006246174B8E43EB581670BFF35F8F002204
:10168000226088F31088002B06D0984704E0BFF34F
:101690005F8F276088F31088E0BCBA46B146A84641
:1016A000F0BD0C4B92009C46624413681360BFF37C
:1016B0005F8F0023236088F31088EDE7280100D0B6
:1016C000004005403C7005406A1B0020541B002070
:1016D000C4150020D03F054010B5034B0100180091
:1016E000024AFFF721F810BD671B00205448001084
:1016F000034B596A0A00986A596A8A42FAD17047BC
:101700000040054070B5002806DB1C4A916A936AC8
:101710005B1A8342FBD370BD04000025174A536A4D
:101720001900966A536A8B42FAD1300019002418C6
:101730004D41AB4218D9114B5B6A1C005A1C0AD0B0
:10174000012301246442E5175B420C494A6A9A422C
:10175000FCD39A42DFD1094A02E0516A9942DAD1B8
:10176000916A8C42F9D8D6E7AB4201D1A642E2D8C1
:10177000024A2B00526A9542E7D8EAE7004005404A
:1017800070B504000D00EFF3108672B61A4A1368A4
:10179000002BFCD0BFF35F8F002D1BD02000FFF784
:1017A00071F8164981420AD02000FFF773F8012131
:1017B0002000FFF755F80123A340114A1360114B95
:1017C000A400E550BFF35F8F00220B4B1A6086F335
:1017D000108870BD0121A1400A4BA200D5500A4BD0
:1017E00020001A788A4305491A70FFF777F900211B
:1017F0002000FFF735F8E5E7280100D01D1600109E
:1018000038600540C41500206A1B0020F0B54F4623
:10181000D6464646C0B507002B4C616A0D00A66A45
:10182000616AA942FAD18B4208D805D00120E0BCF8
:10183000BA46B146A846F0BDB242F7D9EFF3108AD6
:1018400072B6224801680029FCD0BFF35F8F0125E2
:10185000BD401F491C4C8846097889462943C9B2B6
:101860008C46414660460870391D890065630A51FF
:101870001849B8004350216A0020294219D0616AF2
:101880000800A66A616A8142FAD18B4219D801D157
:10189000B24216D8CC450BD00B4B1F221D625D63A4
:1018A00001233A4093400C4A136043464A461A705B
:1018B0000120BFF35F8F0022044B1A608AF3108867
:1018C000B5E70020F5E7C04600400540280100D0FC
:1018D0006A1B0020541B002080E200E0EFF3108C14
:1018E00072B60A490B68002BFCD0BFF35F8F01234F
:1018F0008340074A0748136202789A430270BFF395
:101900005F8F00230B608CF310887047280100D094
:10191000004005406A1B002070B505000E00140051
:10192000002923D0002A12D080686B689847296864
:1019300000280ED063001B197200033B9219CB18CC
:10194000033A9E7088188A5C002A11D10470300016
:1019500070BD73009B196200033B1219CB18033A48
:101960009C7088188A5C002A05D106702000EFE779
:101970005A700470EBE75A700670F7E730B5836071
:101980000023CCB243730133047342608373C47386
:101990000D000068012C06D9421C0133DBB2137024
:1019A00003329C42F9D1FF2129404B005B18C0183B
:1019B00000230338437030BD70B505000C1E07D0FE
:1019C000630001681B19033BCB185A78002A01D128
:1019D000200070BD500080180338091800204E7890
:1019E0004870210058702800FFF796FF310004006E
:1019F0002800FFF7E1FF0600002C26D00028E7D0E2
:101A000021003200A8686B689847296800280ED02A
:101A100073009B196200033B1219CB18033A9C70A8
:101A200088188A5C002A00D05A700670D0E76300DC
:101A30001B197200033B9219CB18033A9E70881849
:101A40008A5C002A00D05A7004703400C0E7C04697
:101A5000F0B557464546DE464E46E0B50D006F00F0
:101A600001687F19033F0400C85D83B00192CA1961
:101A7000002850D043001B18033BCB185E78B446B7
:101A8000002E1AD1019E002E42D0E67B002E04D0FB
:101A900073009B19CB18033B5D70A37B002B00D117
:101AA000A573E57300282FD10023537003B0F0BC59
:101AB000BB46B246A946A046F0BD72006244033A56
:101AC0008A18517888460021517089465970320031
:101AD00001002000FFF720FF43468246002B07D07D
:101AE0005B0021684344033BCB185A78002A16D187
:101AF000424651462000FFF70FFF2168019BCA199B
:101B0000002BC2D10028CFD043001B18033BCB18B9
:101B100000219970C8E7019B002BB6D1C4E75000A3
:101B2000801803380918487883464846487058702A
:101B300041462000FFF7F0FE594680462000FFF79F
:101B40003BFF414602002000FFF7E6FE8046CFE75C
:101B5000F0B557464546DE464E46E0B583B00191A6
:101B6000457B04006F0000687F19033FC15DC21907
:101B7000002952D04B005B18033BC3185E78B44673
:101B8000002E1CD1019E002E44D0E67B002E04D0F6
:101B900073009B19C318033B5D70A37B002B00D11E
:101BA000A573E573002931D10023280053706173B8
:101BB00003B0F0BCBB46B246A946A046F0BD7200D9
:101BC0006244033A82185078804600205070814663
:101BD000587032002000FFF79FFE43468246002BDC
:101BE00007D05B0021684344033BCB185A78002A96
:101BF00017D1424651462000FFF78EFE019B01009F
:101C00002068C219002BC0D10029CDD04B005B1831
:101C1000033BC31800209870C6E7019B002BB4D18A
:101C2000C2E75000801803380918487883464846B0
:101C30004870587041462000FFF76EFE59468046B6
:101C40002000FFF7B9FE414602002000FFF764FEC6
:101C50008046CEE770B5050000292CD0437B8B422F
:101C60002ED04C0000686418033C0419A278002AA6
:101C700021D053009B18033BC25CC6188A4202D194
:101C80001BE0002A08D053009B18033BC3185A7866
:101C90008A42F6D162785A70002301222800A3708C
:101CA0006370FFF7D5FE697B02002800FFF734FE62
:101CB0006873012000E0002070BD63783370EBE7AB
:101CC00001221900FFF7C4FEF2E7C04610B50C2050
:101CD00082B000F0AFF9FEF71FFD002810D08B4B4B
:101CE0008B488B498B4A186059609860D96018619D
:101CF00059619861D961186259625A6202B010BD87
:101D0000854CA06700F09EF90122844B1A60636C39
:101D1000012BFCD10322824B1A607F4A936B012B6B
:101D2000FCD1013301217F4A7F480093043300F046
:101D300031F905237D4A009301217D4800F02AF9FD
:101D40007C4B5A68FF2A02D8802252005A608022B7
:101D5000734B6E4C12011A602169002907D060692B
:101D600000F07AFA013043001B18033BFDD2E02259
:101D7000704B714819680A4002600222196851408C
:101D800001320A40042102609A681142FCD080218D
:101D90006A4A09011160802252005A60684B23612F
:101DA000684B5968FF2900D85A60032201215B4B18
:101DB0001A60644A93681942FCD0E023106803401B
:101DC00061480360126803234A40022113405D4AC0
:101DD000036093681942FCD080215C4B09011960B3
:101DE00080215B4B4900516063615A4B5A68FF2A5E
:101DF00000D859608022584B12011A60E16900290D
:101E000007D0606900F028FA013043001B18033B3B
:101E1000FDD2E0234F4A11680B4050490B608021EE
:101E20004F4B090119608021394B49005160E36132
:101E30004C4B5A68FF2A00D8596080224A4B120145
:101E40001A60216A002907D0606900F005FA0130A4
:101E500043001B18033BFDD2E023424A11680B40AC
:101E600042490B608021424B0901196080235B00CD
:101E700053608022264BD20223623E4B5968914226
:101E800000D25A6080223C4B12011A60616A00291C
:101E900007D0606900F0E0F9013043001B18033BF4
:101EA000FDD2E023334A11680B4034490B60802196
:101EB000334B090119608023DB025360154B6362C9
:101EC000304B5A68FF2A02D8802252005A60802282
:101ED0002D4B12011A60A169002907D0606900F03A
:101EE000BBF9013043001B18033BFDD2E023254A18
:101EF00011680B4025490B608021254B09011960B1
:101F000080235B005360124BA361F7E6F00E0020C4
:101F1000006CDC021BB70000008000403CB00040B9
:101F200030B00040002F685900800240008C864786
:101F300000C00240308000403090004030A000409F
:101F4000001BB7003C8000403C9000403CA000409B
:101F5000405973075480004054B0004054900040F2
:101F600054A000406080004060B00040609000409D
:101F700060A000406C8000406CB000406C9000405D
:101F80006CA000404880004048B0004048900040AD
:101F900048A00040F8B5040021481D0017000E00BD
:101FA00000F05AF90100380000F056F9069B2904A8
:101FB0001B0319432368002B20DB1A4B1A4DE21830
:101FC00053425A4180235B019C461203174B6244E3
:101FD0001A60174B1A601700AB689F43FBD1C022F1
:101FE000231D92011A4321232660A06013602368F9
:101FF000002BFCDA0823E1601360F8BD3F23226860
:102000001340B342D9D1A3681B051B0D8342D4D121
:10201000EE22E368D20213408B42CED1EDE7C046F8
:10202000001BB7000040FDBF00C0004000E00040C2
:1020300000F000408023024A9B000343D3627047B4
:1020400000800540AA23064A1B0113602F2305497F
:10205000D360054B19605368002BFCDA7047C0460B
:102060000040024000B0FA00006002402C4B2D4AB4
:1020700070B51A602C4A2D4B2D491A6014008B68DC
:102080009C43FBD12B4D2C4EB54208D2013E761B12
:10209000B60808CD984723000134B342F9D1FFF7C1
:1020A00015FE264A214B1A60214A9368DB43DB0167
:1020B000DD09002BF9D14022214B224C224E9A6798
:1020C0005A671A67DA66B44208D223682000002BE8
:1020D00020D00834FEF766FEB442F6D31B4C1C4EEB
:1020E000C022B168200000F0AFF9B460FEF78CFBAD
:1020F000FEF730FEFFF712F8164C174EB44208D226
:10210000013E361BB60808CC98472B0001359E428D
:10211000F9D170BD0834FEF737FEB442D5D3DDE700
:1021200000E00040BFCDFBFEFE7F3C0000F0004021
:1021300000C00040D80E0020E80E0020FFFFFF0185
:1021400000F00140C80E0020D80E00200000002042
:1021500000ED00E0E80E0020F00E002000BEFDE7DC
:1021600010B5FFF7FBFFC0460FB400B5084883B0B9
:1021700000F01AFA049B002B07D005A91800019162
:1021800000F018F8034800F00FFA0120FFF7E6FF0F
:10219000784800108848001010B50148FFF7E4FFA8
:1021A0008C48001010B5002800D110BD00F0B0F927
:1021B000FBE7C04610B5094A0300146884B0002C40
:1021C00008D0012200910648524203A9A0470120ED
:1021D00004B010BD00F0E8F90020F9E72C1B002046
:1021E000A521001001480421014B1847800E002052
:1021F00015220010142310B50100188804331B8821
:10220000984710BD162310B50100188802331B88AB
:10221000984710BDF8B54746CE4680B50F1E19D079
:1022200014239946043304000025012698464B46A2
:102230001888434621681B88984701C4431E98416B
:10224000013540420640AF42F1D13000C0BCB94632
:10225000B046F8BD0126F8E7114A936F9B0813D2E8
:1022600010665166002905D0FFE7FFE7FFE7516FD1
:10227000106F704704B5002801D00020C04302F061
:10228000AFF9002104BDC046F0B5146E556E576F0E
:10229000166FFFF7E5FF1466556657671667F0BDC2
:1022A000000000D0132370B51D78012D15D010DD6E
:1022B0001D48FFF7A7FF1D4C01008022200000F001
:1022C000C3F8022D2DD01A48FFF794FF194B186060
:1022D00070BD194B154CA364F5E7174B134C2360E5
:1022E0006360A360E36023616361A361E3612362D0
:1022F0006362A362E36223636363A363E3632364B0
:102300006364A364E36423656365A365E36523668F
:102310006366A366E36623676367A367E367A364F3
:10232000D1E7054BA364CEE753440000181000200A
:102330004C3300004C1B00203D23001007B56046C5
:1023400001880A0A0230DF2AFAD1C9B2820804D30E
:10235000028840880004104300E00068014A5050A1
:10236000039007BD1810002051434343C9188C4601
:10237000110C83B24B4310B4040C614392B280B28F
:10238000504362431C041B0C001910BC5941130438
:10239000120CC0185141614470470000132310B55E
:1023A00012481C78FFF72EFF0100012C0AD003DD34
:1023B00080220F4800F048F80E48FFF71BFF0E4B35
:1023C000186010BD0A4C5422200000F03DF80B4B61
:1023D0006365A365E36523666366A366E3662367B7
:1023E0006367A367E3672362E361E5E753460000A1
:1023F000181100204C3300004C1B00200124001059
:1024000007B5604601880A0A0230DF2AFAD1C9B24C
:10241000820804D3028840880004104300E000686A
:10242000014A5050039007BD1811002001480421B3
:10243000014B1847900E002015220010014B1B681D
:1024400018470000900E0020014B5B681847000001
:10245000900E0020F0B546464F46D646C0B5437DA7
:1024600080460E001700002B4BD0002A32DD274B90
:1024700001259A464B1E00240020994607E0335D53
:102480000A2B2CD02B0001340135BB4213DA002C6F
:10249000F5D133780A2BF5D143461B7D002BF1D1C2
:1024A0004346504602211B68984728002B00013400
:1024B0000135BB42EBDB874204DD4346391A1B681A
:1024C00030189847F619013E33780D3B5A42534174
:1024D00042461375E0BCBA46B146A846F0BD4B462D
:1024E0001B5D0D2BCED0A042DADA4346211A1B68C1
:1024F000301898474346504602211B6898472800E9
:10250000D4E70368110030009847E3E7FC48001067
:10251000F0B5CE46474680B583B06B460600DD1D5C
:102520002870FFF7E5F800231A4A12184B41802162
:1025300009068B4202D30122174B52421749080069
:10254000884602F05DF8164B81461C68002C14D0BA
:10255000144F02E02469002C0FD02368002BF9D01F
:102560003B68002B01D0A342F4D1200001222900B6
:10257000FFF770FF2469002CEFD14B46002B05D1EB
:10258000300003B0C0BCB946B046F0BD404602F0D2
:1025900017F8F5E740420F00FFFFFF7FD00E002045
:1025A0002017002028170020F0B5DE4657464E467B
:1025B0004546E0B585B0070001F0C0FF0600FFF713
:1025C00097F800232B4A12184B41802109068B42B1
:1025D00002D30122284B5242284908008B4602F0C0
:1025E0000FF8274B01901C689A46002C3BD0254BD6
:1025F000984602ABDD1D0A23994602E02469002CAF
:1026000017D02368002BF9D043461B68002B01D05C
:10261000A342F3D1200032003900FFF71BFF4B46E5
:102620002000012229002B70FFF714FF2469002CE1
:10263000E7D1019B002B18D153461C68002C06D013
:102640006368002B0BD098472469002CF8D1300028
:1026500005B0F0BCBB46B246A946A046F0BD246911
:10266000002CEDD1F3E70028F1D0584601F0A8FF87
:10267000E2E7C04640420F00FFFFFF7FD00E002080
:102680002017002028170020054B10B518680028D7
:1026900004D0044B0022196800F0C8FE10BDC046EB
:1026A000D4160020D816002010B5024800F004F817
:1026B00010BDC046441B002030B5002589B0040081
:1026C0000922002101A80095FFF7B8FE0922002188
:1026D00005A80495FFF7B2FE4B236A4668461370BF
:1026E00004A90D2201F064FF15210822200069448D
:1026F000FFF7AAFE09B030BD10B501210520FEF795
:10270000AFF810BD10B500220021024800F066F9B4
:1027100010BDC0464C17002080219022034B890237
:10272000995080225201DA647047C046002011504F
:102730008022024B5202DA647047C04600201150DA
:10274000F0B5C64600B5060000F022F90C231B4D7B
:10275000FF22AB6705201A49FEF7C6F840239846CA
:10276000184C402200212000FFF768FE4346012755
:10277000238321210023144A6770A26013606354ED
:102780005F31618441462187053963540F4A1049FE
:102790006360E260A1620B606362E26201F048FF85
:1027A00080239B052F64EB6490230A4A3000EA5093
:1027B000FFF7BEFF80BCB846F0BDC0460000115018
:1027C0005D0400202C1700208400105000011050E0
:1027D0008000105010D001000B785B0602D14B78BE
:1027E000052B00D070478A78014B1A60FAE7C04683
:1027F00000001150F0B5C64600B5CC7888780A794B
:102800004B797F21A40701401B02C50913434F00E8
:10281000A20F1400324E7A195201B21890700120A2
:102820006840507000205B055B0DD0701383D47638
:102830008046CA00012D33D02A488446880162446C
:102840008446B4446046826040461060002933D01C
:10285000254AC90090466246414451603F223F33B9
:102860009343022C00D15B0020487A190168520181
:10287000B218D1601E4ACB18036051405A408023E1
:1028800088465B019A4228D84346A4061C4380230D
:102890007F197F01F61972681B062343136011E04C
:1028A00014488446880162448446B4446046826287
:1028B00040461060002909D100236D0175196B6035
:1028C0000D4BEB60012080BCB846F0BD084AC90042
:1028D0009046624641445162C0E7FFF75DFCD3E792
:1028E0002C1700208400105004001050301B0020D2
:1028F00000001050800010500001105010B501F081
:1029000097FE10BD10B57F200C0020404000E40968
:10291000110000191A00034B4001C01800F05EF8C6
:10292000012010BD2C1700207F23180010B508408F
:102930000B420BD0C90980224000074B40184001D0
:102940000021C018120101F06BFE10BD0223034AE2
:10295000C9095B1A9366EEE72C170020002011507E
:102960007F22130010B50B400A4200D110BDC909E7
:102970005B005B1804485B01C01800230022034978
:10298000C37001F04DFEF1E72C170020FFF7FFFFA9
:1029900080220D4B520410B51A600C4B0C491A6082
:1029A00010008B689843FBD10A4C9C220021200028
:1029B000FFF744FD8022002152010748FFF73EFD4A
:1029C0000923636710BDC04600E0004000F00040EE
:1029D00000C000400000115000001050002310B54E
:1029E000C3820133828283760161040001F0F0FD2D
:1029F000002804D080219023074A8902D15020006A
:102A000001F0CEFD002802D00123237710BD200065
:102A100001F0FEFDFAE7C0460020115070B5204AD3
:102A2000204E050000243378002A26D0A3422DD85A
:102A3000E31ADBB2012B00D970BD5A00D3181A4A31
:102A4000DB009B185B682800984733780134E4B2B8
:102A50005A1CA242EADA154C532200212000FFF74B
:102A6000EDFC1022FF21E01CFFF7E8FC20002022F3
:102A7000FF211330FFF7E2FCDEE700F0E9FE28005B
:102A800001F0E6F83378002BD6D1E4E7084B62007A
:102A90001B681219D2009B18002BD3D1CCE7C0467B
:102AA00000000000641B0020F4490010A81400205E
:102AB00034120020024B5878431E9841C0B2704730
:102AC000A8140020024B18784007C00F7047C0467A
:102AD000A8140020094A10B513785B07DC0F002BFF
:102AE00005DA182312781340182B02D00024200096
:102AF00010BD034B1878FFF70FFEF8E7A81400206D
:102B0000C40E0020034B1878FF38431E9841C0B212
:102B10007047C046C40E0020F0B5C64600B52F4E23
:102B200004003378FF2B01D001202AE0532200213A
:102B30002B48FFF783FC2B4D2800FEF725F92A4B85
:102B40001D602A4D2800143DFEF73AF9280001F0D7
:102B5000B1FC274B274F1D60274B9846002B29D0EF
:102B6000380000E000BF254B18603B784246002546
:102B7000002A2AD0AB421FD8EB1ADBB2012B03D9B3
:102B8000002080BCB846F0BD5A00D3181C4ADB00B8
:102B90009B181B6898473B780135EDB25A1CAA4236
:102BA000E8DA20003470FFF7CBFD2000FFF7A4FD2A
:102BB0000120E6E73B78D9E7104B6A001B68521901
:102BC000D2009B18002BE4D1DAE700F009FE01F0F7
:102BD00035F83B78002BD3D1E3E7C046C40E002084
:102BE000A814002060140020FC140020BC0E00205B
:102BF00000150020641B002000000000341200209B
:102C0000F4490010F0B5DE4657464E464546E0B55D
:102C10008DB001F087F900284DD0C24BC24E009311
:102C2000C24B09AC019335686A69EFF3108172B643
:102C30001368002BFCD0BFF35F8FA961280021002F
:102C400001F07AFA6A69AB69BFF35F8F0021116006
:102C500083F3108800282ED06378082BE3D8009ADD
:102C60009B00D3589F466368002BDCD0A068984730
:102C7000D9E77F222179AD4B0A405500C8095B197D
:102C80001B18180001273030C578BD43C570C578C2
:102C90000337BD43C570002A00D180E0A44ADB7C25
:102CA000002A06D0A34A1278934200D2D7E09B1A9A
:102CB000DBB2012B68D90DB0F0BCBB46B246A946C9
:102CC000A046F0BD0122994D01212B780420134329
:102CD0002B703323EA5C27788A43EA54EA5C824308
:102CE000EA540133EA5C8A43EA54EA5C82430020F6
:102CF000EA5400F0ABFC602223791A40602A0AD023
:102D0000402A52D0DB06DB0E012B00D1B0E0022BB3
:102D100065D0002B57D020780021FFF705FE8021D9
:102D20002078FFF701FE7EE7019B1B78DB0700D4CC
:102D300079E7814B002B00D175E7FDF745FB72E782
:102D4000019A1378DB0700D46DE77C4B002B00D190
:102D500069E710780007C00FFDF734FB63E72078C0
:102D6000FFF75CFE00F068FC754B002B00D15AE7C2
:102D700000E000BF57E72078FFF750FE00F05CFC52
:102D80006A4B22799A704EE75D00ED186D4BED00AD
:102D9000ED18A368627920782D69A84743E7A368F6
:102DA0006279207800F066FC3DE767480028B2D0E1
:102DB00000F04CFC012138000AAA00E000BF002806
:102DC00000D030E7A7E7202A00D18AE0002AA2D16C
:102DD0006379092B9FD85D4A9B00D3589F46702387
:102DE000217A0B4297D1C80982460F330B405B0012
:102DF000E8185044C07C029384464D48002808D00F
:102E00004C480078844500D2C1E06346181AC3B22A
:102E10009C466046012800D89CE0002A00D07AE752
:102E2000002398466379994602234A469B469A4373
:102E3000012A00D152E14B46002B00D06BE7029BE8
:102E400008AAEB1853443033DB7802329B07DB0FC0
:102E50001380380002230AA900F098FBE3E63C4AFD
:102E600058001568C318DB00ED18002D91D122E73A
:102E7000237A0F2B00D94EE72D4AEB18DB78002A76
:102E800005D02C4A1278934278D39B1ADBB2012BDF
:102E900000D940E75D00ED182A4BED00ED18E86819
:102EA00000F0D4FB01213800EB680AAA98470028FB
:102EB00000D0B8E66022150023791D401A4200D0E8
:102EC00029E763790A3B012B00D924E700F0BEFB18
:102ED00063790A2B00D15BE138000AA900F040FBBE
:102EE000A1E6237A0F2B00D915E7114AEB18DB78FE
:102EF000002A06D00F4A1278934200D214E19B1A9E
:102F0000DBB2012B00D906E75D00ED180D4BED009B
:102F1000ED18E86800F09AFB01213800EB680AAA76
:102F200098474CE76849001000150020A8140020BD
:102F300000000000641B0020C9030010C50300103E
:102F400000000000F4490010000000008C4900104F
:102F500034120020D34B400098466044C0008044A7
:102F6000002A00D15EE74346D86800F06FFB434675
:102F700001213800DB680AAA984720E7CA4A5900AD
:102F80001568CB18DB00ED18002D88D1C3E6634629
:102F90005B009846C4446346DB009C46C248006818
:102FA00060448046002A00D13CE70028DBD1B2E62D
:102FB000A3799A466B789A4507D06B78002B00D09E
:102FC0003CE15346002B00D0EBE0534638000AA901
:102FD0006B7000F0C5FA26E66B7808AA023213700F
:102FE000380001230AA900F0D1FA1CE6E3881A0A86
:102FF000D8B20F2A00D98EE6AC499300CB589F4631
:103000000AA800F029FB3800A179FFF77BFB022218
:103010002B7813432B7006E6E388012B00D07AE669
:1030200008222B78380093430AA92B7000F098FAF5
:10303000F9E50220297808AB9A1C8B068908DB0F7A
:1030400001400B4304E7E388012B00D063E608222C
:103050002B78380013430AA92B7000F081FAE2E5BF
:10306000934B002B00D156E600E000BF021E00D1BA
:1030700051E6D37891781B020B4338000AA900F07F
:1030800085FA9CE68B4B002B00D144E600E000BFA4
:10309000021E00D13FE6380013780AA900F076FA44
:1030A0008DE62189FDF79EF9021EF4D133E6022A4E
:1030B00000D1CEE0804B002B00D12CE600E000BF19
:1030C0000200002A00D126E6D3E7FDF77FF912239C
:1030D00002000AA9380000F059FA70E6E288002AD6
:1030E0000CD14B46012B29D030229146029BEB1884
:1030F000534499444B46DB789B0739D54346002B14
:1031000000D190E5D86800F0A1FA43460121DB68C0
:103110000AAA38009847002000F098FA3423EB5CA4
:10312000DB0700D57FE5D7E65F4A59001568CB1865
:10313000DB00ED18002D00D0EBE6ECE5029B303211
:10314000EB18534492469A445346DB789B07D5D5F7
:103150005A4B1878FFF704FC53465A46DB789343E2
:103160005246D370D3784A4693435246D370C5E74C
:10317000524B1878FFF7D8FB4B460222DB781343FB
:103180004A46D370D378012213434A46D370B5E739
:1031900008AB9A1C380001230AA9157000F0F6F953
:1031A00041E5581EC0B2FDF719F9002800D1B2E57B
:1031B00043780693022B00D0ADE50121C279B346D6
:1031C000931152110B400A4012015B0113432A78FC
:1031D0002F318A4313432B7009239946C378827891
:1031E0001B021343C3188144049353464E46AA4618
:1031F000B9460793049BB3422FD9012273780292F8
:103200000B2B03D1F37802933378F6187378042BE1
:1032100012D10027049B2A4A9B1B9BB29846294B3C
:10322000039705931B78BA4200D17EE09F4273D387
:10323000FB1ADBB2012B1CD95E466CE53800FFF7A8
:103240005DFBAB7838009846FFF7E8FB4346AB7070
:10325000B7E6FDF7C3F8020033E7079B55469A46E9
:10326000194B4F465E46002B00D1AEE6FDF7A8F89D
:10327000ABE618255D430B4BED184246310048463E
:10328000AB689847082802D9434683421ED2059B63
:1032900001371B78FFB25A1C0397BA42C6DA5E4662
:1032A00039E5C046F449001034120020B44900103A
:1032B000000000000000000000000000C40E00201C
:1032C00000000000641B0020C1030010A846050098
:1032D000029B012B49D00022504609E0B378D31855
:1032E000DBB2C318D978FF29A6D10132DF70D2B280
:1032F000029B9A42F2D13B002A00310082461F48CD
:1033000000F096FE059B039A1B78761901339342D1
:1033100000DB6FE75E46FEE41823194A7B4315681D
:10332000ED18002DA9D15E46F5E44246310048462D
:1033300000F0A4FA0500082802D94346834211D2BE
:10334000474631003A00484600F08CFC050008284A
:1033500000D871E7874200D26EE70127094B039737
:103360009846B5E7084B9846B2E74246074B926845
:103370009A42B0D1069B0293ADE7C046BB14002031
:10338000341200200C4A0010F44900107D3800105F
:10339000F8B557464E46DE4645460C00E0B51600E9
:1033A0001F00002A3CD01F4B00259A4670239946E7
:1033B0001D4B9B4617E05B462000997800F0FAFD14
:1033C00000281FD021004046FFF714FA002819D02A
:1033D000A378DA09012A1CD00A9A013513702378E0
:1033E000E418B5421CDA6378052B0BD1E3789B0710
:1033F0009B0FBB4206D153464A461B789846A3789A
:103400001A42D8D00020F0BCBB46B246A946A0461E
:10341000F8BD0B9A013513702378E418B542E2DB4E
:103420000120F0E7C40E0020A8140020802310B56E
:103430001B0184B001930E4B02901C6803916269DA
:10344000EFF3108372B611680029FCD0BFF35F8FD1
:10345000A361200001A900F031FF6269A369BFF3F5
:103460005F8F0021116083F3108804B010BDC04647
:1034700000150020702270B5094B0C001D788B7868
:103480001A4201D0002070BD064B2000997800F050
:1034900091FD0028F6D021002800FFF7ABF9F2E7F4
:1034A000C40E0020A81400200B007F2010B5184087
:1034B000DB0933334000044AC018044B1168C018BC
:1034C00000F034FD10BDC046FC140020A8140020FC
:1034D0000B007F2010B51840DB0933334000044A4D
:1034E000C018044B1168C01800F048FD10BDC0465C
:1034F000FC140020A814002070B57F240F480C4055
:1035000064000419CD0964193034E078C00701D58E
:10351000002070BD0126E578094835430078E57044
:10352000FFF7F0F90028F4D10122E3789343E37028
:10353000E37803329343E370EAE7C046A81400201F
:10354000C40E00207F22054B0A405200C9099B1877
:103550005B183033D878C007C00F7047A81400201C
:1035600070B5094C0600082220000D00FEF76CFF24
:1035700000238021E360A3602B7830009943002270
:103580000023FFF7B9FF70BD80130020F8B5CE46C9
:1035900047469046264E80B58146082230000D00F1
:1035A0001F00FEF751FF4346B3600023F381EC791F
:1035B000AB7924021C43231CBC4200D93B1C9FB2A4
:1035C000B381002C0ED0002F18D04346002B2CD0F6
:1035D0003B1C402F1BD89FB233787F2B1CD8002177
:1035E000144A0FE080212B7800229943484600239B
:1035F000FFF782FFC0BCB946B046F8BD7F2300226A
:10360000317899433B004846FFF776FFF2E74023C5
:103610009FB233787F2BE2D9064C3A004146200016
:10362000FEF712FF80212200ECE70020E2E7C0460F
:10363000801300206814002010B5142200210248D5
:10364000FEF7FCFE10BDC04680130020014B186140
:103650007047C0468013002010B5054C01000822B9
:103660002000FEF7F1FE0023A360E36010BDC0461A
:103670008013002070B5394C1D0023780600DA094C
:10368000C9098A4213D00020002D00D070BD344BF0
:10369000002B03D021003000FFF79EF82369002B98
:1036A00003D022000321300098470120EEE77F2B52
:1036B00006D8A068002834D02A002A49FEF7C4FEA4
:1036C000E289A1685219E38892B24919E281A160A6
:1036D000934214D03F2D12D9A389981A051C80B2A9
:1036E00040282AD82078ADB27F2828D800219A42D5
:1036F00032D01C4A2B003000FFF7FEFEC6E72369DC
:10370000002B05D0220002213000984700280AD063
:10371000802123780022994330000023FFF7ECFE3C
:10372000B4E70020B2E700213000FFF7FDF83000D9
:103730008021FFF7F9F80120A8E74025D2E79A4257
:1037400007D0084C2A002000FEF77EFE80212200D0
:10375000D0E780210022CDE70022CBE780130020B4
:10376000D927001068140020F8B50500FFF7A2F96A
:10377000002801D10020F8BDFFF7A4F90028F9D1F5
:10378000AC006419E4006419E4002500134E2435EC
:10379000AD19280000F09CFC0028EBD03719002060
:1037A000B978FFF781FE0028E4D00934FF34A4196A
:1037B00021002800402200F00DFDB978051E08D038
:1037C000030022000020FFF797FE0028D2D0280037
:1037D000D1E70020FFF77CFECCE7C046381200207E
:1037E000A42270B5184C82B0002120005200FEF7D0
:1037F00025FEFF236371154B0025E3800126082376
:103800002100200026812373402238310095073B98
:10381000103000F027FC0096210020002600012334
:1038200040227831B836243000F01CFC3000FDF71F
:10383000ABFA26622600C0363000E561FDF7A4FA37
:103840002663656302B070BD3812002000C2FFFF1E
:1038500010B5094C052200212000FEF7EFFD2000E5
:103860002434103000F026FE200000F023FE012159
:10387000200000F03FFE10BD38120020F0B54B795B
:10388000060083B0022B02D18B79022B03D00025D6
:10389000280003B0F0BD2E4FBB78002BF7D18B78FA
:1038A00009253B700C780C196378242B0BD1082A5E
:1038B00002D81FE0AA421DD32378E4185D1963786B
:1038C000ADB2242BF6D0052B2FD0042B12D1637967
:1038D0000A2B0FD11F4B277801930133009302224B
:1038E00002233000E119FFF753FD0028CFD00E3539
:1038F000ED19ADB2184C200000F008FC3F28C7D9E4
:103900002600103E0020F178FFF7CEFD0028BFD042
:10391000200000F0FBFB3F2815D922004023F1785E
:10392000B8320020FFF7E8FDB2E721003000FFF7D2
:10393000A1FD0028ABD0A3787B7023785D19E41833
:103940006378ADB2C1E7F1780020FFF7C1FD9FE7D2
:10395000381200203A12002048120020F8B56023E7
:1039600014001278050013400020202B12D12F4A9A
:103970006379277916781B023B439E420AD163780C
:10398000222B27D007D8202B17D0212B02D1012999
:103990003DD00120F8BD232BFCD101293FD00329C4
:1039A000F7D1234B002BF4D0E178A3780902002053
:1039B000194300E000BF0120ECE7012927D00329CB
:1039C000E7D11C4B002BE4D00020911D00E000BF8C
:1039D0000120DFE7012922D00329DAD101252E00B9
:1039E000A378E478023924021C431471264024325F
:1039F0001000714000F07EFD0F4B002BC9D0620813
:103A0000002031002A40FCF7D9FC0120C2E707233F
:103A100021002800094AFFF7B9FD0120BAE721007B
:103A20002800FFF79DFD0120B4E7C04638120020B2
:103A30000000000000000000BD0300103E12002046
:103A4000F8B545465746DE464E46E0B5454D1F00A3
:103A5000EA7880460C00AB788A4246D000208B4240
:103A60001AD0F0BCBB46B246A946A046F8BD3E4BB4
:103A7000002B04D0484600F041FB00286AD048469D
:103A800000F044FB3F2807D94E46103E0020F17855
:103A9000FFF70AFD002850D1AB78A34201D00120E6
:103AA000DFE7324B002B02D0002000E000BF0020F7
:103AB000FFF75AFE0028F2D12D4C200000F008FB41
:103AC0000028ECD1002FEAD0BF06E8D1243C4046C4
:103AD000A178FFF7E9FC0028E1D00023002240464E
:103AE000A178FFF709FD0120BBE710232E009B46BC
:103AF000C836AB4431005846BAB200F023FC1D4B27
:103B0000D946002BB3D06B79FF2BB0D0002FAED0AD
:103B1000F219924603E00136B245A8D06B793278AB
:103B20009A42F8D1484600F0E9FA0028F3D14B4612
:103B3000103B597900E000BFEDE7484600F0E6FA97
:103B40003F280AD94A464023F178B8320020FFF7CF
:103B5000D3FCA1E7FEF798FD91E7F1780020FFF78D
:103B6000B7FC99E7381200208926001000000000F9
:103B70005C120020000000008C2242430B4B10B569
:103B80009B185C78FEF796FF002801D1002010BD3D
:103B9000FEF798FF0028F9D1002CF7D02100FFF79D
:103BA000D1FC01235840C0B2F1E7C046D413002035
:103BB000F0B54746CE4680B583B06E460F0019007B
:103BC0000023327005000622737000292FD0B01C2C
:103BD000FEF73AFC8C246C43174BA1469846C1442F
:103BE0004B4600205978FFF75FFC00280FD0002FCC
:103BF00012D108344444230006CE06C308238C2285
:103C00006A434244517800202200FFF775FC03B05C
:103C1000C0BCB946B046F0BD4B4608344444082207
:103C20003100601C1F72FEF70FFC0923E7E700213B
:103C3000B01CFEF703FCCDE7D413002010B58C2296
:103C400000210248FEF7FAFB10BDC046D413002045
:103C500010B58C2200210248FEF7F0FB10BDC046D3
:103C6000D4130020F0B54B7906000D0083B0032B70
:103C70000FD10879C400241A1234A4B2944208D88F
:103C80001A4F7B78002B04D1297869184B78212BA7
:103C900003D00024200003B0F0BD8823F9500B7836
:103CA0000200C9187B1C0193BB1C00933000032346
:103CB000FFF76EFB0028ECD0AB79012B01D1EB793B
:103CC000FB7001233B71AB78B9783B708823FB58BC
:103CD000DA791B7A1B021343FB800029DAD03A0001
:103CE000402330004832FFF707FCD3E7D41300200D
:103CF0001F23F0B514001278050083B01340012B88
:103D00001BD1644E20793378984216D16023180075
:103D10001040134208D020280FD163780B2B0CD809
:103D20005D4A9B00D3589F46012918D1E378A178BA
:103D300062781B020B43062A02D0002003B0F0BDBC
:103D40001B0A212B00D188E0222BF6D10020FCF7A2
:103D500041FB21000200F3882800FFF717FC012037
:103D6000ECE70129FBD1E1784C4B7171002B04D0B9
:103D7000002000E000BF0028DFD021002800FFF76E
:103D8000EFFB0120DAE7012972D00329E7D1E079BE
:103D9000A37900021843E278A178041C402800D9D6
:103DA00040243F4BA4B2002908D0012806D948205E
:103DB000305C884202D1013C3A4BA4B2002000940E
:103DC000FCF7F8FA0120B9E70129D6D00329C6D1BA
:103DD000A178354B3171002BC1D0002000E000BF2D
:103DE0000120ABE70129BAD1E379A0791B02034393
:103DF000E278A178181C402B00D9402080B200291D
:103E000044D0012B42D9330001270138317280B2EE
:103E1000093300900020FCF7CBFA3B189BB2002B33
:103E200000D18AE721002800204AFFF7AFFB0120DC
:103E300084E7012993D10123210028001C4AFFF7C0
:103E4000A5FB01207AE7012989D10123210028005F
:103E5000184AFFF79BFB012070E76733F258002AEE
:103E600000D16AE7210028001378FFF78FFB65E790
:103E7000E379A2791B021343402B00D95DE72100AF
:103E80002800074AFFF782FB012057E70027074B6E
:103E9000BFE7C046D4130020244A001000000000F1
:103EA0001C1400201D14002000000000DC13002062
:103EB000D8130020D913002070B5144C0500A27847
:103EC000667882B08A420ED000208E4201D002B0C5
:103ED00070BD0F4A002A04D000200E499AB2FCF7A8
:103EE0006BFA0120F3E79642F3D026009BB24836E6
:103EF00000930022330000210020FCF75BFA4023EE
:103F000032002800A178FFF7F7FAE0E7D413002089
:103F1000B9030010DC13002010B50020FEF7FCFDF3
:103F200010BDC04610B5FEF7EDFD10BD037870B5AD
:103F3000DB0704000E00DD0F002B17D103785B07B1
:103F400001D5280070BD01213000494200F050FB2E
:103F50002378DB07DD0F002B0AD123785B0708D419
:103F60000422237801251343237002E00025E8E7AB
:103F70000025300000F024FBE3E7C04670B50C00DC
:103F8000012106004942200000F032FB33785B0734
:103F9000DD0F002B04DB200000F012FB280070BDB9
:103FA0003378DB0704D40422337893433370F2E789
:103FB0000025F0E7437902791B0213435B055A0D94
:103FC000C3789B079B0F022B05D0032B15D0002035
:103FD000012B08D0704702291ED0002040239342B5
:103FE0004041C0B2F6E702394B4259410D4B9C4665
:103FF000614491424041C0B2ECE702394B1E994105
:10400000094B494219408023DB009C460020614453
:1040100091424041C0B2DDE7044BD01843425841C1
:10402000C0B2D7E7FF03000040FCFFFF00FEFFFF28
:104030008A1870B5914207D27F264C78052C04D09F
:104040000C7809198A42F8D870BD34008D782C405C
:1040500064000419ED0963550C7809198A42ECD8FB
:10406000F2E7C046F0B5C64600B5040006A80578DC
:104070008020884617001E000002824226D8E06891
:10408000002803D00121494200F0B2FA206900283B
:1040900003D00121494200F0ABFA43462360730488
:1040A0005B0CED031D430023E0686381A780E5807E
:1040B0002381002801D000F083FA2069002801D074
:1040C00000F07EFA012080BCB846F0BD0020FAE77F
:1040D00010B5048941898288A3B288B28C4207D383
:1040E0001B1A9BB2101C9A4200D9181C80B210BD3A
:1040F0005100091A5B189BB2F4E7C0460389408956
:10410000181A43425841C0B27047C04610B50489DE
:1041100041898288A3B288B28C4207D31B1A9BB212
:1041200000209A4201D9D21A90B210BD5100091A4A
:104130005B189BB2F4E7C04670B5040000690E003E
:10414000002803D00121494200F052FA25896089F4
:10415000A288A9B283B285422BD3CD1AADB2002D6D
:104160002DD0AA4208D291422FD3891A8BB26381F3
:104170009A4203D89B1A9BB29A42FBD9E2882168E3
:104180005204520C53433000C918FEF75DF963899D
:104190000125591C89B2A2888B4212D95200891A72
:1041A00089B220696181002801D000F009FA280055
:1041B00070BD5500ED1A4D19ADB2002DD1D16189F8
:1041C00089B252009142ECDBE9E789188BB2638136
:1041D000CEE7C046F0B546464F46D646C0B50600C7
:1041E000006989469046002803D00121494200F029
:1041F000FFF931897289B5888BB294B2914254D358
:104200001F1BBFB2002F4AD0BD4205D2AB4251D2D4
:104210005B199CB22F0074814346B8453DD89FB2CC
:10422000A54203D8641BA4B2A542FBD9F288316829
:104230005204520C904662432B1B9BB28918424693
:104240009F4225D953439BB21A0048469A46FEF72F
:10425000FBF8434648467D1B64195C433168504473
:10426000A2B2FEF7F1F87189B588CB199BB26A004A
:10427000994216D99B1A9BB230697381002801D0EC
:1042800000F09EF93800E0BCBA46B146A846F0BD41
:1042900048467A43FEF7D8F8E5E73B1CBFE7738949
:1042A0009BB26A009342E7DBE4E76F003F1BDF1934
:1042B000BFB2A7E75B1B9CB2ACE7C046F8B50400F1
:1042C000C0680E00002803D00121494200F090F997
:1042D000258920896189A288ADB283B28FB28842D4
:1042E00028D3DB1B9BB29A4209D8E779FF0906D194
:1042F000E068002801D000F063F93800F8BD2B0019
:10430000954203D39B1A9BB29342FBD2E28820686A
:104310005204520C53433100C018FEF795F8A2889E
:104320006B1C9BB252009D4209D99B1A9BB201277C
:104330002381DDE75100C91B5B189BB2D3E7934291
:10434000F5DBF2E7F0B54546DE4657464E46E0B5AA
:1043500088460500140083B0002A6FD0C06800288A
:1043600003D00121494200F043F92E89EB796A8993
:10437000B6B292B2DB0940D1AB88964267D25900FF
:104380008A1AB21892B20027934230D99A1A171C8F
:1043900092B2A24200D9271CEA88BFB25204520C42
:1043A0009146F21992B29246FA1A92B293463400AA
:1043B000B34203D8E41AA4B29C42FBD24A466243F9
:1043C00028681B1B9BB280184A46BB4253D3414608
:1043D0007A43FEF739F8AB885B00B24501D39A45C2
:1043E00003DB5246D31A9BB29A4653462B81E868A8
:1043F000002824D000F0E4F821E0AF88BC4229D2A4
:1044000096424AD3B31A9BB279001B198B4208DB40
:10441000D3199BB21E1BB6B29A46B24242D9761A43
:10442000B6B2EB885B045B0C9946A3199BB29A4623
:10443000E31B9BB29B463B002700B8E700273800F0
:1044400003B0F0BCBB46B246A946A046F0BDB21AC6
:1044500092B298E7002FCAD0EB88E41B5B045B0C98
:104460005C4399461600D31900229BB29A469346A4
:104470003B00A0449BE7534399B20A0001915C447E
:104480004146FDF7E1FF22004B465A430199286857
:1044900092B24144FDF7D8FF9DE779008B1AF318DB
:1044A0009BB2B2E7B142BADDEB885B045B0C994684
:1044B000BEE7C04610B50400C068002803D0012143
:1044C000494200F095F82069002803D001214942B3
:1044D00000F08EF80023E06863812381002801D07A
:1044E00000F06EF82069002801D000F069F8012082
:1044F00010BDC04670B50400C0680D00002803D090
:104500000121494200F074F82069002803D00121FC
:10451000494200F06DF87F21E379ED011940E06830
:104520002943E171002801D000F04AF820690028F1
:1045300001D000F045F8012070BDC04610B58307DA
:104540000AD00300032102E001330B4205D01A78A0
:10455000002AF9D1181A10BD030019680C4A0D4C35
:104560008A188A4322420FD15968094A04338A18AB
:104570008A43224208D15968054A04338A188A437B
:104580002242F1D000E001331A78002AFBD1E1E7A2
:10459000FFFEFEFE80808080F8B5C046000000006F
:1045A00001B40248844601BC604700BF9509002061
:1045B00001B40248844601BC604700BF8902002064
:1045C00001B40248844601BC604700BFED010020F1
:1045D00001B40248844601BC604700BF6D09002059
:1045E00001B40248844601BC604700BF810D002031
:1045F00001B40248844601BC604700BF5D01002051
:1046000001B40248844601BC604700BFC1000020DD
:1046100001B40248844601BC604700BF090B00207A
:1046200001B40248844601BC604700BFB10A0020C3
:1046300001B40248844601BC604700BF4903002022
:1046400054696E795553420054696E79555342202E
:1046500044657669636500003132333435360000D5
:104660000904000009022200010100A0320904002F
:1046700000010300000009211101000122EF0007E1
:10468000058103400005000005010906A10185011F
:10469000050719E029E71500250195087501810234
:1046A0009501750881010508190129059505750110
:1046B0009102950175039101050719002AFF001564
:1046C0000026FF00950675088100C005010902A1BA
:1046D0000185020901A10005091901290515002517
:1046E0000195057501810295017503810105010997
:1046F0003009311581257F95027508810609381525
:1047000081257F950175088106050C0A38021581FF
:10471000257F950175088106C0C0050C0901A1011E
:104720008503150026FF0319002AFF039501751064
:104730008100C005010905A10185040501093009B1
:104740003109320935093309341581257F950675FC
:1047500008810205010939150125083500463B018C
:104760009501750881020509190129201500250107
:10477000952075018102C000120100020000004076
:10478000FECA054000010102030100000100E00033
:104790000000000000005400000000000000550070
:1047A0000000000000005600000000000200E100D0
:1047B0000000000000006000000000000000610038
:1047C0000000000000005700000000000000290069
:1047D0000000000000005D000000000000005E001E
:1047E0000000000000005800000000000000590018
:1047F0000000000000005A000000000000005B0004
:1048000000000000000062000000000000006300E3
:104810000000000000000000000000000000000098
:104820000000000000000000000000000B0C0D0E56
:104830000F000000020304054E6F207370696E6C58
:104840006F636B732061726520617661696C616270
:104850006C650000486172647761726520616C610B
:10486000726D20256420616C726561647920636CCF
:1048700061696D65640000000A2A2A2A2050414EB1
:104880004943202A2A2A0A000A000000486172646B
:10489000206173736572740052656C6561736500A5
:1048A000626F6F74325F77323571303830000000DC
:1048B000312E352E310000007069636F000000005A
:1048C0007069636F2D6B6579706164004465632066
:1048D000313020323032330006005250D3F075426E
:1048E0009848001006005250E182887FA0480010CE
:1048F00006005250BBFF3CB6B84800100D0A00003D
:10490000556E68616E646C65642049525120307840
:1049100025780A006570202564202573207761734F
:1049200020616C726561647920617661696C616295
:104930006C65000043616E277420636F6E74696E4E
:1049400075652078666572206F6E20696E6163748C
:1049500069766520657020256420257300000000BD
:104960006F757400696E0000262C0010762D001003
:104970005E2D0010262C0010402D0010282D001058
:10498000C42C0010722C0010662C00103230001065
:1049900018300010162D001046300010162D001093
:1049A00000300010EC2F0010162D0010D82F001032
:1049B000B02F0010162D0010CA300010AE300010BD
:1049C000A2300010162D0010162D0010843000109B
:1049D000AE300010162D0010162D0010162D0010F0
:1049E000162D0010162D0010162D0010162D00107B
:1049F00060300010E1370010513800107D38001091
:104A00005D390010413A0010000000003D3C0010EC
:104A1000513C0010653C0010F13C0010B93E001004
:104A2000000000003A3D0010E43D0010463E00103A
:104A3000323E00103A3D00103A3D00103A3D001061
:104A40003A3D00103A3D0010863D0010623D0010D6
:104A5000C83D00104C4544000900525000000002BF
:0C4A6000544A00100800525012000000E0
:104A6C00D8480010E448001088020010F0480010EC
:104A7C0094020010A0020010AC020010644A001056
:044A8C00584A001074
:104A9000F0B5C646150000B504001E000268EFF32D
:104AA000108172B61368002BFCD0BFF35F8F042314
:104AB000E356002B2DDB2268BFF35F8F00201060D0
:104AC00081F31088D0221206127852B290469A4290
:104AD00003D1002080BCB846F0BD00270BE023685E
:104AE000BFF35F8F1F6081F310882800310000F052
:104AF00043FE0028EDD12268EFF3108172B61368EF
:104B0000002BFCD0BFF35F8F23797F2BE7D943467F
:104B100002E0D0231B061B6823712368BFF35F8F5D
:104B200000221A6081F310880120D3E7F0B5C64651
:104B300000B50D00040000F02FFEFA2206000F0061
:104B4000002328000021920000F036FE8023361852
:104B50004F411B069F4202D30126174F7642D023B6
:104B60001B061B68002598460BE02368BFF35F8F88
:104B70001D6081F310883000390000F0FDFD002831
:104B800018D12268EFF3108172B61368002BFCD0A5
:104B9000BFF35F8F23797F2BE7D9434623712368C7
:104BA000BFF35F8F00221A6081F31088012080BC60
:104BB000B846F0BD0020FAE7FFFFFF7F0268EFF381
:104BC000108172B61368002BFCD0BFF35F8FFF23F8
:104BD00003710368BFF35F8F00221A6081F31088AE
:104BE00040BF704710B5084C2378002B0AD18023B2
:104BF000064807495B051A68C25004338B42FAD154
:104C00000123237010BDC046661B0020D415001080
:104C10000001001010B5014B984710BDD5150020BC
:104C2000034B1A68C0239B009343024A13607047EA
:104C30000C8001400C900140054B1A6880239B00BA
:104C40005340C02292001340024A13607047C0468E
:104C50000C8001400C9001401423F0B5D6464F461D
:104C600046469A46814618880433C0B598460E00D9
:104C70001B88264914009847534607001888434666
:104C800023491B8898475346050018884346214905
:104C90001B8898478046FFF7A5FFB847A847FFF74E
:104CA000CBFF221E20D0C02108270220490511E099
:104CB000002C14D0131B0D2B20D9002D0AD023005B
:104CC000002A05D00B6E013A3370130001362343DE
:104CD000002B09D03D008B6A1D401842E8D1002D01
:104CE000EDD123001343F5D1FFF79AFFC047FFF73B
:104CF00091FFE0BCBA46B146A846F0BD4B461B78D2
:104D0000013C0B6601239C46E144E8E7494600006C
:104D100045580000464300000022154B10B59A602C
:104D2000DA601A615A619A61DA611A625A629A62A9
:104D3000DA621A635A639A63DA631A645A649A6489
:104D4000DA641A655A659A65DA651A665A669A6669
:104D5000DA661A675A679A67DA67F03292000021BA
:104D6000044800F011FD044B044A1A6010BDC0460F
:104D7000000010506C170020301B002080011050E4
:104D8000F0B55746DE464E464546E0B5244B87B063
:104D90009F6D002F23D0234B002499460123984672
:104DA000214B01269A4604E001347600E4B2202C1F
:104DB00015D03E42F8D04B469E65434665086D00CF
:104DC000A343ED186D015544280000F0BBFB0028FB
:104DD0000CD10134B743E4B27600002FE7D107B01D
:104DE000F0BCBB46B246A946A046F0BDAB7802A8CF
:104DF0009B46EB8A062200210630019300F0C4FC9A
:104E0000E023594602AADB009380019B117203A89C
:104E10000121059300F0BEFB280000F02BFBD8E732
:104E200000001150003011502C1700209823C84A60
:104E3000F0B5D55880232C009B02102685B01C406D
:104E40001D427AD0C34BC44C9A6AC44B00261A60E8
:104E50003B23E35C022B00D1DFE07B23E35C022BEE
:104E600000D1B9E1BB23E35C022B00D1A9E1FB2314
:104E7000E35C022B00D199E13C23FF33E35C022B7E
:104E800000D158E17C23FF33E35C022B00D145E1E4
:104E9000BC23FF33E35C022B00D132E1FC23FF3360
:104EA000E35C022B00D11FE1AD4BE35C022B00D190
:104EB0000EE1AC4BE35C022B00D1FDE0AA4BE35CBE
:104EC000022B00D1ECE0A94BE35C022B00D1DBE02C
:104ED000A74BE35C022B00D1CAE0A64BE35C022B9C
:104EE00000D1ABE0A44BE35C022B00D17FE1A34BEC
:104EF000E35C022B00D196E1002E08D1A04B1B7879
:104F0000002B04D180219F4A90338902D150904BCD
:104F10000A229C6C6B460021981D00F035FCC023D2
:104F2000640501AE9B00640D3380300002940121C2
:104F3000802400F02FFB944EA402EB0669D480235A
:104F40005B021D4214D0012223211C43824B5A5480
:104F5000DA70C0238D4ADB00019302AB03CA03C39E
:104F6000012101A800F016FB8022864B92021A65EF
:104F700080235B011D4233D18023DB011D421CD104
:104F800080231B021D4204D1AC4200D0C8E105B011
:104F9000F0BD1C436B460A220021981D00F0F4FB73
:104FA000A02301AEDB0033800121300000F0F2FAD3
:104FB0008022744B12011A65E6E71C436B460A22F5
:104FC0000021981D00F0E0FB802301AEDB00338060
:104FD0000121300000F0DEFA10226A4B1A65CFE79B
:104FE00000221C435A4B01AE1A60FFF795FE6B4638
:104FF0000A220021981D00F0C7FB80235B0033804C
:105000000121300000F0C6FA80225E4B12031A65BF
:10501000B2E7FFF7B5FE340091E73833E65C002EC7
:1050200000D11AE70233E25C002A00D115E7200024
:1050300000222030E25400F04FFA0EE7544BE75CB8
:10504000002F00D14EE70233E25C002A00D060E17D
:10505000494BE35C022B00D1DBE0484BE35C022BC5
:1050600000D054E74B4BE35C002B00D0E0E04EE770
:10507000494BE75C002F00D12FE70233E25C002AA6
:1050800000D03EE13E0028E7444BE75C002F00D112
:105090001EE70233E25C002A00D02AE13E0017E757
:1050A0003F4BE75C002F00D10DE70233E25C002AA2
:1050B00000D016E13E0006E73A4BE75C002F00D136
:1050C000FCE60233E25C002A00D002E13E00F5E695
:1050D000354BE75C002F00D1EBE60233E25C002A9F
:1050E00000D0EEE03E00E4E6F933FF33E75C002F4A
:1050F00000D1D9E60233E25C002A00D0D8E03E00BD
:10510000D2E6B933FF33E75C002F00D1C6E60233A5
:10511000E25C002A00D0C2E03E00BFE67933FF33F4
:10512000E75C002F00D1B3E60233E25C002A00D036
:10513000ACE03E00ACE63933FF33E75C002F00D132
:10514000A0E60233E25C002A00D096E03E0099E639
:1051500000001150004005402C17002024170020AB
:105160003B0200007B020000BB020000FB020000CB
:105170003B0300007B030000BB030000FB030000B7
:10518000651B00200030115010000200000010507C
:105190007A030000FA0300003A030000FA0200005C
:1051A000BA0200007A0200003A020000F833E75C1D
:1051B000002F00D160E60233E25C002A55D13E00A8
:1051C0005AE6B833E75C002F00D150E60233E25CC8
:1051D000002A42D13E004AE67833E75C002F00D136
:1051E00040E60233E25C002A2FD13E003AE64F4B04
:1051F000E35C002B00D17AE6EF239B00E25C002AFF
:1052000000D12AE70022E2541C3BE01800F064F9C8
:1052100023E7464BE35C002BEED1454BE35C022BCE
:1052200000D074E63E00434BE35C002B00D163E604
:10523000FF239B00E25C002A00D168E60022E254D2
:105240001C3BE01800F048F961E6200000226030C5
:10525000E2543E0000F040F904E620000022A030B5
:10526000E2543E0000F038F901E620000022E03070
:10527000E2543E0000F030F9FEE52000002221302B
:10528000FF30E2543E0000F027F9FBE52000002249
:105290006130FF30E2543E0000F01EF9F8E52000D6
:1052A0000022A130FF30E2543E0000F015F9F5E590
:1052B00020000022E130FF30E2543E0000F00CF903
:1052C000F2E50022E2541C3BE01800F005F93E0034
:1052D000EFE50022E2541C3BE01800F0FDF83E0030
:1052E000ECE50022E2541C3BE01800F0F5F83E002B
:1052F000E9E50022E2541C3BE01800F0EDF83E0026
:10530000E6E50022E2541C3BE01800F0E5F83E0020
:10531000E3E50022E2541C3BE01800F0DDF897E6DC
:1053200021000548694000F01FFAC046BA0300009A
:10533000FB030000FA03000000490010084A0300C4
:10534000126C0020920703D49A78D209012A00D067
:105350007047D87E023843425841C0B2F8E7C04691
:105360000000115010B5FFF7E9FF00280CD00749E5
:10537000074B8C46074A9B6A126863449B1A0020BD
:10538000C6229A424041C0B210BDC046E0FCFFFFB9
:105390000040054024170020F8B5028B838A0400E2
:1053A0000F00161C9A4200D91E1CE27880211500BD
:1053B000681E8541B6B2C90031436D030D4301211A
:1053C0004A409B1BE27062789BB2A382002A09D0FC
:1053D000002B02D18023DB011D43002F00D02D04C0
:1053E0002800F8BDE068BB01C0183200216900F058
:1053F000B3F923699B19236180231B021D43A38AF0
:10540000E6E7C046836870B504001D68002900D037
:105410002D0C6378AD05AD0D002B09D1E38AEB1897
:10542000E382238BAB4201D90023A382280070BD05
:10543000E368890159182A00206900F08DF9E38A90
:10544000EB18E38223695B192361EAE710B50400D6
:10545000836800211B68FFF7D5FF63681B685B004A
:1054600002D5238B834200D010BD01212000FFF71D
:10547000C9FFF9E700238376436103617047C046A3
:1054800010B58368002901D01C682140002A11D082
:105490008024E400114322420CD01A6822420BD12E
:1054A0000A4A0A401A60FFE7FFE7FFE7FFE7FFE766
:1054B000FFE78368196010BD81787F20CA09044B1B
:1054C00092000140D258034800F04EF9FFFBFFFF65
:1054D000A00E002014490010436870B500218025FB
:1054E0001E680400FFF758FF134B6D011B6C05434A
:1054F0009B070FD5A3785B060FD0104B1E4080236F
:105500009B05334362680021136020002A00FFF7E7
:10551000B7FF70BDA378DB09EFD0A38A002BECD0D6
:1055200001212000FFF738FFA023054ADB053240A8
:1055300005431343E6E7C04600001150FFFFFFAFED
:10554000FFFFFFDF70B5857E0400002D14D0FFF74C
:105550007DFFA38A002B01D1280070BD2000FFF73A
:1055600001FF002803D0012300252377F4E7200062
:10557000FFF7B2FF0025EFE781787F20CA09034BD0
:1055800092000140D258024800F0EEF8A00E002030
:1055900034490010F0B5C64600B54378050084B024
:1055A000042B00D17DE04CD8022B00D18BE0032BE3
:1055B0005BD1614E614B00243278002B00D19AE020
:1055C0005F4B604F984604E00134E4B2531CA342A1
:1055D00016DBA24200D9A5E0A11AC9B20129F3D86D
:1055E0004B005B18DB00DB195B69002BECD06968B2
:1055F0002878984732780134E4B2531CA342E8DAA1
:10560000514B1A78520748D504211A788A431A70E8
:105610006B460A220021981D00F0B6F86A462B78E6
:10562000137105235371494B1C686269EFF31081B4
:1056300072B61368002BFCD0BFF35F8FA16101A984
:1056400020E0052B11D1404B1A78D20725D5042133
:105650001A788A431A703D4B1C686269EFF3108117
:1056600072B61368002B09D1FBE7384B1C686269DE
:10567000EFF3108172B61368002BFCD0BFF35F8F7D
:10568000A1612900200000F08FF86269A369BFF3CF
:105690005F8F0021116083F3108804B080BCB8468E
:1056A000F0BD294B1A78D207F7D504211A780A439E
:1056B0001A70264B1C686269EFF3108172B613688A
:1056C000002BDBD1FBE701201F4A117881431170C9
:1056D00011789943002311700421537013788B4380
:1056E00013701A4B1C686269EFF3108172B613686D
:1056F000002BC3D1FBE70024124F05E00134E4B2D4
:10570000531CA34200DA7BE7012CF7D863001B1976
:10571000DB00DB195B69002BF0D0696828789847BB
:105720003278EBE7434661001B680919C9005B1832
:10573000002B00D058E747E7641B00200000000062
:1057400034120020F4490010A81400200015002095
:105750007047C0460000000001B40248844601BC06
:10576000604700BF4924001001B40248844601BCD0
:10577000604700BF6921001001B40248844601BCA3
:10578000604700BF3115001001B40248844601BCD7
:10579000604700BF3D24001001B40248844601BCAC
:1057A000604700BFF116001001B40248844601BCF6
:1057B000604700BFBD42001001B40248844601BCEE
:1057C000604700BF6923001060460010404600108B
:1057D000484600105846001010000000000000006D
:1057E00000000100000000000000000000000200B6
:1057F00000000000000000000000030000000000A6
:10580000000000000000FF000000000001B5486833
:1058100001318E460047704609380149884701BD6D
:10582000A10C00106C0E002000000000180F0020DA
:10583000E01600200000000000000000F01600202C
:105840000000000000000000100000000000000048
:10585000503300004C33000054330000523300003A
:105860004D5300004D43000053340000433400000A
:1058700060490010644900100415002010000C005D
:105880000000000000000000000000000000000018
:1058900000000000FF000000000000000000000009
:1058A00000000000000000002D240010E521001081
:1058B000A52200109D23001031030010A92600101E
:04000005100001E9FD
:00000001FF
